:020000040000FA
:02000000C22A12
:080008000900A0000530A6006C
:10001000FA30A1000000A10B0A28A60B0828A00BAB
:1000200006280800A1000530A600A60B1528A10B84
:10003000132808001430052005110911891009142E
:10004000851600000516242805120F300520091119
:10005000891009148516000005162E2805120A308D
:100060000520091189100914851600000516382885
:1000700005120A30052009118910091485120000A3
:100080000516422805120A300520283055200A306E
:10009000052001305520053005200C305520053055
:1000A00005200630D50005150800A500A50D03188C
:1000B0000915031C0911A50D03188914031C8910C7
:1000C000A50D03180914031C0910A50D03188516A6
:1000D000031C8512000005166D2805120530052049
:1000E000A50D03180915031C0911A50D0318891482
:1000F000031C8910A50D03180914031C0910A50D74
:1001000003188516031C85120000051687280512A2
:100110000530052008000511183055200515080088
:100120000511240855200515A40A0800A30A230870
:10013000053C031C9D28AB2008000130A300AB2028
:100140000800A303A3080319A728AB200800053063
:10015000A300AB200800013023020319BF2802309E
:1001600023020319FC280330230203193929043020
:10017000230203197629053023020319B329C1305C
:10018000A400051103305520C03055200130052052
:100190000515423055209020413055209020543094
:1001A000552090202030552090203330552090202D
:1001B0002E30552090203730552090205630552035
:1001C00090202D3055209020373055209020303011
:1001D000552090203030552090206D3055209020B3
:1001E00041305520902068305520902020305520F7
:1001F0009020C83005200800C130A400051103304C
:100200005520C030552001300520051543305520BC
:1002100090205230552090203230552090203030A0
:10022000552090203330552090203230552090209A
:1002300020305520902033305520902056305520C6
:1002400090202D3055209020323055209020343091
:10025000552090203030552090206D305520902032
:10026000413055209020683055209020C83005201E
:100270000800C130A400051103305520C0305520BE
:100280000130052005154130552090204130552082
:100290009020413055209020203055209020313042
:1002A000552090202C30552090203530552090201E
:1002B0005630552090202D3055209020313055203B
:1002C0009020313055209020303055209020303013
:1002D000552090206D3055209020413055209020A1
:1002E000683055209020C83005200800C130A40097
:1002F000051103305520C03055200130052005156B
:1003000041305520902041305520902020305520FC
:1003100090203130552090202C30552090203530C1
:10032000552090205630552090202D30552090207B
:1003300032305520902035305520902030305520D7
:1003400090203030552090206D3055209020413045
:100350005520902068305520902020305520902046
:10036000C83005200800C130A40005110330552015
:10037000C030552001300520051550305520902003
:100380004530552090205230552090205330552034
:1003900090204F30552090204E30552090204130F5
:1003A000552090204C3055209020493055209020E9
:1003B0005A3055209020413055209020443055200F
:1003C00090204F3055209020203055209020203014
:1003D00055209020203055209020C830052008005E
:1003E000860106108614061501300520861D01348D
:1003F000061E0434861E0734061F0A3406148610AF
:10040000061501300520861D0234061E0534861EA1
:100410000834061F00340614861406110130052026
:10042000861D0334061E0634861E0934061F0B344F
:1004300008008130A40005110130552003305520FB
:10044000051545305520902073305520902063309D
:10045000552090206F30552090206C3055209020F2
:100460006830552090206130552090202030552054
:100470009020563055209020203055209020653017
:100480005520902020305520902049305520902034
:100490002030552090203C30552090202D30552084
:1004A0008B20313055208B20203055208B202D3053
:1004B00055208B203E3055208B20323055208B200C
:1004C000203055208B202A3055208B204F3055204E
:1004D0008B204B3055200130A30008002308013A3F
:1004E0000319832A2308023A0319882A2308033AA6
:1004F00003198D2A2308043A0319922A2308053A7E
:100500000319972A08002530A8004630A9000800E2
:100510001E30A8001830A90008000F30A8006E3067
:10052000A90008000F30A800FA30A9000800080050
:10053000013A0319B32AAA01AB018030A0000930A7
:100540009F001F151F19A22A1E08AA070318AB0A2D
:10055000A00BA12A0730A0000310AB0CAA0CA00B23
:10056000AC2A2B080800AA01AB018030A0000130A2
:100570009F00A12AA201AC02031CC02AA20ABB2A26
:1005800022080800831603308500F8308600FF300B
:100590008700FF308800F83089008B01810104302A
:1005A0009F00831201309F00850186018701880129
:1005B00089011A200A3005201922AB200A30A20036
:1005C000F021A700013A0319A1202708023A0319D4
:1005D000962027080B3A0319F42AA7013230052088
:1005E000A20BE02A8B20DE2A6E2201309822DE2A1E
:02400E00723FFF
:00000001FF
