:020000040000FA
:02000000EA2CE8
:040002000034003492
:080008000900A0000530A3006F
:10001000FA30A1000000A10B0A28A30B0828A00BAE
:1000200006280800A1000530A300A30B1528A10B8A
:1000300013280800F0300520F0300520F0300520AE
:10004000F030052008001430052005110911891031
:1000500009148516000005162D2805120F300520FD
:100060000911891009148516000005163728051294
:100070000A3005200911891009148516000005169B
:10008000412805120A30052009118910091485122A
:10009000000005164B2805120A30052028305E2086
:1000A0000A30052001305E20053005200C305E202E
:1000B000053005200630DE0005150800A700A70D55
:1000C00003180915031C0911A70D03188914031C33
:1000D0008910A70D03180914031C0910A70D031894
:1000E0008516031C851200000516762805120230BD
:1000F0000520A70D03180915031C0911A70D0318E6
:100100008914031C8910A70D03180914031C091076
:10011000A70D03188516031C8512000005169028EC
:100120000512023005200800051118305E20051563
:100130000800051126085E200515A60A0800A50A74
:100140002508053C031CA628B42008000130A500A2
:10015000B4200800A503A5080319B028B42008009E
:100160000530A500B42008002918D329C130A60005
:10017000051103305E20C0305E20013005200515DA
:10018000013025020319D42802302502031907295A
:100190000330250203193A290430250203196D2979
:1001A000053025020319A02942305E2099204130F4
:1001B0005E20992054305E20992020305E209920C6
:1001C00033305E2099202E305E20992037305E201B
:1001D000992056305E2099202D305E2099203730AE
:1001E0005E20992030305E20992030305E209920AA
:1001F0006D305E20992041305E20992068305E206D
:10020000992020305E209920C83005200800433016
:100210005E20992052305E20992032305E20992055
:1002200030305E20992033305E20992032305E20BD
:10023000992020305E20992033305E20992056305E
:100240005E2099202D305E20992032305E2099204A
:1002500034305E20992030305E2099206D305E2051
:10026000992041305E20992068305E209920C83066
:100270000520080041305E20992041305E20992001
:1002800041305E20992020305E20992031305E2060
:1002900099202E305E20992035305E2099205630EE
:1002A0005E2099202D305E20992031305E209920EB
:1002B00031305E20992030305E20992030305E2031
:1002C00099206D305E20992041305E209920683061
:1002D0005E209920C8300520080041305E2099201A
:1002E00041305E20992020305E20992031305E2000
:1002F00099202E305E20992035305E20992056308E
:100300005E2099202D305E20992032305E20992089
:1003100035305E20992030305E20992030305E20CC
:1003200099206D305E20992041305E209920683000
:100330005E20992020305E209920C83005200800DA
:1003400050305E20992045305E20992052305E204A
:10035000992053305E2099204F305E2099204E30F6
:100360005E20992041305E2099204C305E209920FB
:1003700049305E2099205A305E20992041305E201D
:10038000992044305E2099204F305E209920203003
:100390005E20992020305E20992020305E20992018
:1003A000C830052008008130A600051101305E200C
:1003B00003305E200515C028860106108614061538
:1003C000013005208619EA298619E9290A30052015
:1003D000E4290134061AF229061AF1290A30052007
:1003E000EC290434861AFA29861AF9290A300520DC
:1003F000F4290734061B022A061B012A0A300520AD
:10040000FC290A34061486100615013005208619C9
:100410000F2A86190E2A0A300520092A0234061AE4
:10042000172A061A162A0A300520112A0534861AB8
:100430001F2A861A1E2A0A300520192A0834061B8C
:10044000272A061B262A0A300520212A00340614F2
:1004500086140611013005208619342A8619332A9C
:100460000A3005202E2A0334061A3C2A061A3B2A93
:100470000A300520362A0634861A442A861A432A68
:100480000A3005203E2A0934061B4C2A061B4B2A3B
:100490000A300520462A0B34FF348130A6000511AE
:1004A00001305E2003305E20051545305E20992026
:1004B00073305E20992063305E2099206F305E207B
:1004C00099206C305E20992068305E209920613040
:1004D0005E20992020305E20992056305E209920A1
:1004E00020305E20992065305E20992020305E20EB
:1004F000992049305E20992020305E2099203C30A0
:100500005E2099202D305E20942031305E20942092
:1005100020305E2094202D305E2094203E305E20DE
:10052000942032305E20942020305E2094202A30A7
:100530005E2094204F305E2094204B305E200130AE
:10054000A50008002508013A0319B72A2508023A30
:100550000319BC2A2508033A0319C12A2508043ABD
:100560000319C62A2508053A0319CB2A0800BD300D
:10057000AA007430AB0008009930AA002830AB0004
:1005800008004D30AA003830AB0008004D30AA00FA
:100590008030AB0008000130AA000130AB00C13050
:1005A000A600051103305E20C0305E20013005201A
:1005B0000515A123C330A6009920DC21A800FF3C2B
:1005C0000319DD2A28080A3A0319CB2A28080B3A0E
:1005D0000319DD2A2808303E5E2099202E305E2047
:1005E00099203330B7002808B80093243A08AA07A6
:1005F000FF30A800DC21A800FF3C0319FA2A2808D4
:100600000A3A0319CB2A28080B3A0319FA2A2808B0
:10061000303E5E2099203330B7002808B80093247C
:100620003908B0003A08B1000A30AF00AE017024BA
:100630003108AA07FF30A800DC21A800FF3C0319FD
:100640001C2B28080A3A0319CB2A28080B3A03194D
:100650001C2B2808303E5E2099203330B700280834
:10066000B80093243908B0003A08B1006430AF00F4
:10067000AE0170243108AA07FF30A8000330A60796
:100680009920DC21A800FF3C0319412B28080A3AD5
:100690000319CB2A28080B3A0319412B2808303EAE
:1006A0005E2099205330B7002808B80093243908F9
:1006B000B0003A08B1000530AF00AE017024310837
:1006C000AB07FF30A800DC21A800FF3C0319632B17
:1006D00028080A3A0319CB2A28080B3A0319632B76
:1006E0002808303E5E2099205330B7002808B80013
:1006F00093243908B0003A08B1003230AF00AE019F
:1007000070243108AB07FF30A800DC21A800FF3CB3
:100710000319852B28080A3A0319CB2A28080B3A13
:100720000319852B2808303E5E209920DC21A80083
:1007300028080A3A0319CB2A28080B3A031908009B
:10074000962B54305E20992062305E2099203A30FA
:100750005E20992020305E20992020305E20992054
:1007600020305E20992020305E20992020305E20AD
:10077000992049305E20992063305E2099203A30DC
:100780005E20992020305E20992020305E20992024
:1007900020305E2099200800A918E62BAC01AD019D
:1007A0008030A00009309F001F151F19D52B1E088F
:1007B000AC070318AD0AA00BD42B0730A000031020
:1007C000AD0CAC0CA00BDF2B2C080800AC01AD016C
:1007D0008030A00001309F00D42BB700A91C232C2F
:1007E0003708BF00C930A6000511013005200515E6
:1007F000992049305E20992063305E2099203A305C
:100800005E209920C830B80093243908B0003A0817
:10081000B1000230AE009730AF007024B10D572404
:100820003D08303E5E2099203C08303E5E209920F5
:100830003B08303E5E2099206D305E20992041308B
:100840005E20942008003708BE00C130A6000511C4
:1008500003305E20C0305E20013005200515563083
:100860005E20992063305E2099203A305E209920E6
:100870006430B80093243908B0003A08B100AE01E2
:100880003330AF00702457243D08303E5E2099205D
:100890002E305E2099203C08303E5E2099203C0896
:1008A000303E5E20992056305E2099200800B00A24
:1008B000BD01BC01BB01B10803190800BB0A3B081C
:1008C0000A3A031D652CBB01BC0A3C080A3A031D09
:1008D0006B2CBC01BD0AB10B5E2CB00B6C2C08005C
:1008E0001030B6003008B4003108B500B001B101D5
:1008F000B201B3010310B50DB40DB30DB20D2E0846
:100900003202031D852C2F083302031C8E2C2F0866
:10091000B302031CB2032E08B2020314B10DB00DD2
:10092000B60B7A2C0800B901BA0138080310371841
:10093000B907B90CBA0CB718B907B90CBA0C371902
:10094000B907B90CBA0CB719B907B90CBA0C371AF0
:10095000B907B90CBA0CB71AB907B90CBA0C371BDE
:10096000B907B90CBA0CB71BB907B90CBA0C080017
:10097000A2008714A91CD32C22082B020318C92C0F
:10098000A200A2090310A20D2208950203189501E6
:100990000800A2000310A20C0310A20C0310A20C6A
:1009A0002208950708002A0822020318C92CA20071
:1009B000A2090310A20D2208950203189501080050
:1009C000A2000310A20C0310A20C0310A20C220818
:1009D00095070800831603308500F8308600F9304B
:1009E0008700FF308800F83089008C018B0181017D
:1009F00004309F0083120730920001309F00FF30C7
:100A000092000C3097008E019501910185018601BD
:100A1000870188018901A90123200A3005208E0160
:100A20009501910187104D22B4200A30A200DC21EB
:100A3000A800013A0319AA202808023A03199F20A6
:100A400028080B3A03192B2DA80132300520A20BE0
:100A5000172D9420152DA2222914B4202910A91095
:100A6000CC23ED23A914CC23ED232A08B7000930A9
:100A7000B80093243908B0003A08B1000B30AF0039
:100A8000AE0170243E08B1020318472D5F2D2B08DC
:100A9000B100B0010A30AF00AE017024A9142B08D8
:100AA000A4003108AB003F08B824950A2408AB0025
:100AB0001A20DC21A8000A3A03190F252F2DA914AA
:100AC0003F08B8242A08B7000F30B800932439082B
:100AD000B0003A08B1000C30AF00AE017024DC2148
:100AE000A8000A3A03190F253E083102031C7A2D8B
:100AF0001A207C2D1A205F2DA910CC23ED233E084F
:100B0000AA00A910CC23ED233E08B824A914CC23B5
:100B1000ED231A20DC21A8000A3A03190F252B081F
:100B2000B1000311B10C0311B10CA914CC23B10213
:100B3000031C812D2A08BE02031C9F2D812D9501C7
:100B40002A083E020318A72DA9103E08B8241A202F
:100B50008710A910CC23ED23A914CC23ED239420D6
:0C0B6000DC21A8000A3A03190F259F2D84
:02400E00723FFF
:00000001FF
